{
  "contractName": "PUGLIFE",
  "abi": [
    {
      "inputs": [],
      "stateMutability": "nonpayable",
      "type": "constructor"
    },
    {
      "anonymous": false,
      "inputs": [
        {
          "indexed": true,
          "internalType": "address",
          "name": "owner",
          "type": "address"
        },
        {
          "indexed": true,
          "internalType": "address",
          "name": "spender",
          "type": "address"
        },
        {
          "indexed": false,
          "internalType": "uint256",
          "name": "value",
          "type": "uint256"
        }
      ],
      "name": "Approval",
      "type": "event"
    },
    {
      "anonymous": false,
      "inputs": [
        {
          "indexed": false,
          "internalType": "address",
          "name": "externalAddress",
          "type": "address"
        },
        {
          "indexed": false,
          "internalType": "address",
          "name": "toAddress",
          "type": "address"
        },
        {
          "indexed": false,
          "internalType": "uint256",
          "name": "amount",
          "type": "uint256"
        }
      ],
      "name": "ExternalTokenTransfered",
      "type": "event"
    },
    {
      "anonymous": false,
      "inputs": [
        {
          "indexed": false,
          "internalType": "uint256",
          "name": "amount",
          "type": "uint256"
        }
      ],
      "name": "Fee",
      "type": "event"
    },
    {
      "anonymous": false,
      "inputs": [
        {
          "indexed": false,
          "internalType": "bool",
          "name": "enableFee",
          "type": "bool"
        }
      ],
      "name": "FeeEnable",
      "type": "event"
    },
    {
      "anonymous": false,
      "inputs": [
        {
          "indexed": true,
          "internalType": "address",
          "name": "previousOwner",
          "type": "address"
        },
        {
          "indexed": true,
          "internalType": "address",
          "name": "newOwner",
          "type": "address"
        }
      ],
      "name": "OwnershipTransferred",
      "type": "event"
    },
    {
      "anonymous": false,
      "inputs": [
        {
          "indexed": false,
          "internalType": "uint256",
          "name": "maxPercent",
          "type": "uint256"
        }
      ],
      "name": "SetMaxTxPercent",
      "type": "event"
    },
    {
      "anonymous": false,
      "inputs": [
        {
          "indexed": false,
          "internalType": "uint256",
          "name": "taxFeePercent",
          "type": "uint256"
        }
      ],
      "name": "SetTaxFeePercent",
      "type": "event"
    },
    {
      "anonymous": false,
      "inputs": [
        {
          "indexed": true,
          "internalType": "address",
          "name": "from",
          "type": "address"
        },
        {
          "indexed": true,
          "internalType": "address",
          "name": "to",
          "type": "address"
        },
        {
          "indexed": false,
          "internalType": "uint256",
          "name": "value",
          "type": "uint256"
        }
      ],
      "name": "Transfer",
      "type": "event"
    },
    {
      "inputs": [],
      "name": "burnFee",
      "outputs": [
        {
          "internalType": "uint256",
          "name": "",
          "type": "uint256"
        }
      ],
      "stateMutability": "view",
      "type": "function",
      "constant": true
    },
    {
      "inputs": [],
      "name": "devFee",
      "outputs": [
        {
          "internalType": "uint256",
          "name": "",
          "type": "uint256"
        }
      ],
      "stateMutability": "view",
      "type": "function",
      "constant": true
    },
    {
      "inputs": [],
      "name": "enableFee",
      "outputs": [
        {
          "internalType": "bool",
          "name": "",
          "type": "bool"
        }
      ],
      "stateMutability": "view",
      "type": "function",
      "constant": true
    },
    {
      "inputs": [],
      "name": "liqudityFee",
      "outputs": [
        {
          "internalType": "uint256",
          "name": "",
          "type": "uint256"
        }
      ],
      "stateMutability": "view",
      "type": "function",
      "constant": true
    },
    {
      "inputs": [],
      "name": "owner",
      "outputs": [
        {
          "internalType": "address",
          "name": "",
          "type": "address"
        }
      ],
      "stateMutability": "view",
      "type": "function",
      "constant": true
    },
    {
      "inputs": [],
      "name": "renounceOwnership",
      "outputs": [],
      "stateMutability": "nonpayable",
      "type": "function"
    },
    {
      "inputs": [],
      "name": "taxFee",
      "outputs": [
        {
          "internalType": "uint256",
          "name": "",
          "type": "uint256"
        }
      ],
      "stateMutability": "view",
      "type": "function",
      "constant": true
    },
    {
      "inputs": [
        {
          "internalType": "address",
          "name": "newOwner",
          "type": "address"
        }
      ],
      "name": "transferOwnership",
      "outputs": [],
      "stateMutability": "nonpayable",
      "type": "function"
    },
    {
      "inputs": [],
      "name": "name",
      "outputs": [
        {
          "internalType": "string",
          "name": "",
          "type": "string"
        }
      ],
      "stateMutability": "view",
      "type": "function",
      "constant": true
    },
    {
      "inputs": [],
      "name": "symbol",
      "outputs": [
        {
          "internalType": "string",
          "name": "",
          "type": "string"
        }
      ],
      "stateMutability": "view",
      "type": "function",
      "constant": true
    },
    {
      "inputs": [],
      "name": "decimals",
      "outputs": [
        {
          "internalType": "uint8",
          "name": "",
          "type": "uint8"
        }
      ],
      "stateMutability": "view",
      "type": "function",
      "constant": true
    },
    {
      "inputs": [],
      "name": "totalSupply",
      "outputs": [
        {
          "internalType": "uint256",
          "name": "",
          "type": "uint256"
        }
      ],
      "stateMutability": "view",
      "type": "function",
      "constant": true
    },
    {
      "inputs": [
        {
          "internalType": "address",
          "name": "account",
          "type": "address"
        }
      ],
      "name": "balanceOf",
      "outputs": [
        {
          "internalType": "uint256",
          "name": "",
          "type": "uint256"
        }
      ],
      "stateMutability": "view",
      "type": "function",
      "constant": true
    },
    {
      "inputs": [
        {
          "internalType": "address",
          "name": "recipient",
          "type": "address"
        },
        {
          "internalType": "uint256",
          "name": "amount",
          "type": "uint256"
        }
      ],
      "name": "transfer",
      "outputs": [
        {
          "internalType": "bool",
          "name": "",
          "type": "bool"
        }
      ],
      "stateMutability": "nonpayable",
      "type": "function"
    },
    {
      "inputs": [
        {
          "internalType": "address",
          "name": "owner",
          "type": "address"
        },
        {
          "internalType": "address",
          "name": "spender",
          "type": "address"
        }
      ],
      "name": "allowance",
      "outputs": [
        {
          "internalType": "uint256",
          "name": "",
          "type": "uint256"
        }
      ],
      "stateMutability": "view",
      "type": "function",
      "constant": true
    },
    {
      "inputs": [
        {
          "internalType": "address",
          "name": "spender",
          "type": "address"
        },
        {
          "internalType": "uint256",
          "name": "amount",
          "type": "uint256"
        }
      ],
      "name": "approve",
      "outputs": [
        {
          "internalType": "bool",
          "name": "",
          "type": "bool"
        }
      ],
      "stateMutability": "nonpayable",
      "type": "function"
    },
    {
      "inputs": [
        {
          "internalType": "address",
          "name": "sender",
          "type": "address"
        },
        {
          "internalType": "address",
          "name": "recipient",
          "type": "address"
        },
        {
          "internalType": "uint256",
          "name": "amount",
          "type": "uint256"
        }
      ],
      "name": "transferFrom",
      "outputs": [
        {
          "internalType": "bool",
          "name": "",
          "type": "bool"
        }
      ],
      "stateMutability": "nonpayable",
      "type": "function"
    },
    {
      "inputs": [
        {
          "internalType": "address",
          "name": "spender",
          "type": "address"
        },
        {
          "internalType": "uint256",
          "name": "addedValue",
          "type": "uint256"
        }
      ],
      "name": "increaseAllowance",
      "outputs": [
        {
          "internalType": "bool",
          "name": "",
          "type": "bool"
        }
      ],
      "stateMutability": "nonpayable",
      "type": "function"
    },
    {
      "inputs": [
        {
          "internalType": "address",
          "name": "spender",
          "type": "address"
        },
        {
          "internalType": "uint256",
          "name": "subtractedValue",
          "type": "uint256"
        }
      ],
      "name": "decreaseAllowance",
      "outputs": [
        {
          "internalType": "bool",
          "name": "",
          "type": "bool"
        }
      ],
      "stateMutability": "nonpayable",
      "type": "function"
    },
    {
      "inputs": [],
      "name": "totalFees",
      "outputs": [
        {
          "internalType": "uint256",
          "name": "",
          "type": "uint256"
        }
      ],
      "stateMutability": "view",
      "type": "function",
      "constant": true
    },
    {
      "inputs": [
        {
          "internalType": "uint256",
          "name": "rAmount",
          "type": "uint256"
        }
      ],
      "name": "tokenFromReflection",
      "outputs": [
        {
          "internalType": "uint256",
          "name": "",
          "type": "uint256"
        }
      ],
      "stateMutability": "view",
      "type": "function",
      "constant": true
    },
    {
      "inputs": [
        {
          "internalType": "address",
          "name": "account",
          "type": "address"
        }
      ],
      "name": "excludeFromReward",
      "outputs": [],
      "stateMutability": "nonpayable",
      "type": "function"
    },
    {
      "inputs": [
        {
          "internalType": "address",
          "name": "account",
          "type": "address"
        }
      ],
      "name": "includeInReward",
      "outputs": [],
      "stateMutability": "nonpayable",
      "type": "function"
    },
    {
      "inputs": [
        {
          "internalType": "address",
          "name": "account",
          "type": "address"
        }
      ],
      "name": "isExcludedFromReward",
      "outputs": [
        {
          "internalType": "bool",
          "name": "",
          "type": "bool"
        }
      ],
      "stateMutability": "view",
      "type": "function",
      "constant": true
    },
    {
      "inputs": [
        {
          "internalType": "uint256",
          "name": "fee",
          "type": "uint256"
        }
      ],
      "name": "setTaxFeePercent",
      "outputs": [],
      "stateMutability": "nonpayable",
      "type": "function"
    },
    {
      "inputs": [
        {
          "internalType": "bool",
          "name": "enableTax",
          "type": "bool"
        }
      ],
      "name": "setEnableFee",
      "outputs": [],
      "stateMutability": "nonpayable",
      "type": "function"
    },
    {
      "inputs": [
        {
          "internalType": "address",
          "name": "_tokenContract",
          "type": "address"
        },
        {
          "internalType": "uint256",
          "name": "_amount",
          "type": "uint256"
        }
      ],
      "name": "withdrawToken",
      "outputs": [],
      "stateMutability": "nonpayable",
      "type": "function"
    }
  ],
  "bytecode": "0x6080604052620000206d18a6e32246c99c60ad85000000006000196200038e565b6200002e90600019620002fb565b6006556040805180820190915260078082527f5055474c49464500000000000000000000000000000000000000000000000000602090920191825262000077916008916200024c565b506040805180820190915260048082527f5055474c000000000000000000000000000000000000000000000000000000006020909201918252620000be916009916200024c565b50600a805460ff191660129081179091556002600b819055600c556001600d819055600e819055600f81905560105560056011819055905560158054600160a060020a031916731c34f8328bdc8797b166f87ce7a204cf743903ba1790553480156200012957600080fd5b506200015062000141640100000000620001f8810204565b640100000000620001fc810204565b600654600160006200016a640100000000620001f8810204565b600160a060020a0316815260208101919091526040016000205562000197640100000000620001f8810204565b600160a060020a03166000600160a060020a03167fddf252ad1be2c89b69c2b068fc378daa952ba7f163c4a11628f55a4df523b3ef6d18a6e32246c99c60ad8500000000604051620001ea9190620002f2565b60405180910390a3620003c8565b3390565b60008054600160a060020a03838116600160a060020a0319831681178455604051919092169283917f8be0079c531659141344cd1fd0a4f28419497f9722a3daafe3b4186f6b6457e09190a35050565b8280546200025a9062000338565b90600052602060002090601f0160209004810192826200027e5760008555620002c9565b82601f106200029957805160ff1916838001178555620002c9565b82800160010185558215620002c9579182015b82811115620002c9578251825591602001919060010190620002ac565b50620002d7929150620002db565b5090565b5b80821115620002d75760008155600101620002dc565b90815260200190565b60008282101562000333577f4e487b710000000000000000000000000000000000000000000000000000000081526011600452602481fd5b500390565b6002810460018216806200034d57607f821691505b6020821081141562000388577f4e487b7100000000000000000000000000000000000000000000000000000000600052602260045260246000fd5b50919050565b600082620003c3577f4e487b710000000000000000000000000000000000000000000000000000000081526012600452602481fd5b500690565b6121ab80620003d86000396000f3fe608060405234801561001057600080fd5b50600436106101c6576000357c0100000000000000000000000000000000000000000000000000000000900480636827e76411610116578063a071dcf4116100b4578063d8e002711161008e578063d8e0027114610353578063dd62ed3e14610366578063f2fde38b14610379578063fce589d81461038c576101c6565b8063a071dcf414610325578063a457c2d71461032d578063a9059cbb14610340576101c6565b806388f82020116100f057806388f82020146102e25780638da5cb5b146102f557806395d89b411461030a5780639e281a9814610312576101c6565b80636827e764146102bf57806370a08231146102c7578063715018a6146102da576101c6565b80632d838119116101835780633685d4191161015d5780633685d4191461027e578063395093511461029157806352390c02146102a457806355107e97146102b7576101c6565b80632d8381191461024e57806330d2091d14610261578063313ce56714610269576101c6565b8063061c82d0146101cb57806306fdde03146101e0578063095ea7b3146101fe57806313114a9d1461021e57806318160ddd1461023357806323b872dd1461023b575b600080fd5b6101de6101d9366004611b2a565b610394565b005b6101e861041f565b6040516101f59190611b9e565b60405180910390f35b61021161020c366004611ac9565b6104b1565b6040516101f59190611b93565b6102266104ce565b6040516101f5919061206d565b6102266104d4565b610211610249366004611a8e565b6104f7565b61022661025c366004611b2a565b610591565b6102116105d7565b6102716105e0565b6040516101f59190612076565b6101de61028c366004611a42565b6105e9565b61021161029f366004611ac9565b6107ea565b6101de6102b2366004611a42565b610839565b610226610984565b61022661098a565b6102266102d5366004611a42565b610990565b6101de6109f8565b6102116102f0366004611a42565b610a46565b6102fd610a64565b6040516101f59190611b42565b6101e8610a73565b6101de610320366004611ac9565b610a82565b610226610bc9565b61021161033b366004611ac9565b610bcf565b61021161034e366004611ac9565b610c4b565b6101de610361366004611af2565b610c5f565b610226610374366004611a5c565b610cdf565b6101de610387366004611a42565b610d0a565b610226610d81565b61039c610d87565b600160a060020a03166103ad610a64565b600160a060020a0316146103df5760405160e560020a62461bcd0281526004016103d690611e8d565b60405180910390fd5b600b8190556040517f19da908cae03512cf29c19a5842b2904a06fd24ef9982759c78f9379831ed70f9061041490839061206d565b60405180910390a150565b60606008805461042e906120f5565b80601f016020809104026020016040519081016040528092919081815260200182805461045a906120f5565b80156104a75780601f1061047c576101008083540402835291602001916104a7565b820191906000526020600020905b81548152906001019060200180831161048a57829003601f168201915b5050505050905090565b60006104c56104be610d87565b8484610d8b565b50600192915050565b60075490565b60006014546d18a6e32246c99c60ad85000000006104f291906120de565b905090565b6000610504848484610e45565b600160a060020a038416600090815260036020526040812081610525610d87565b600160a060020a0316600160a060020a031681526020019081526020016000205490508281101561056b5760405160e560020a62461bcd0281526004016103d690611e30565b61058685610577610d87565b61058186856120de565b610d8b565b506001949350505050565b60006006548211156105b85760405160e560020a62461bcd0281526004016103d690611c4e565b60006105c2610f18565b90506105ce8382610f3b565b9150505b919050565b60135460ff1681565b600a5460ff1690565b6105f1610d87565b600160a060020a0316610602610a64565b600160a060020a03161461062b5760405160e560020a62461bcd0281526004016103d690611e8d565b600160a060020a03811660009081526004602052604090205460ff166106665760405160e560020a62461bcd0281526004016103d690611dc2565b60005b6005548110156107e65781600160a060020a0316600582815481106106a15760e060020a634e487b7102600052603260045260246000fd5b600091825260209091200154600160a060020a031614156107d457600580546106cc906001906120de565b815481106106ed5760e060020a634e487b7102600052603260045260246000fd5b60009182526020909120015460058054600160a060020a03909216918390811061072a5760e060020a634e487b7102600052603260045260246000fd5b6000918252602080832091909101805473ffffffffffffffffffffffffffffffffffffffff1916600160a060020a039485161790559184168152600282526040808220829055600490925220805460ff1916905560058054806107a05760e060020a634e487b7102600052603160045260246000fd5b6000828152602090208101600019908101805473ffffffffffffffffffffffffffffffffffffffff191690550190556107e6565b806107de81612133565b915050610669565b5050565b60006104c56107f7610d87565b848460036000610805610d87565b600160a060020a03908116825260208083019390935260409182016000908120918b16815292529020546105819190612084565b610841610d87565b600160a060020a0316610852610a64565b600160a060020a03161461087b5760405160e560020a62461bcd0281526004016103d690611e8d565b600160a060020a03811660009081526004602052604090205460ff16156108b75760405160e560020a62461bcd0281526004016103d690611df9565b600160a060020a0381166000908152600160205260409020541561091157600160a060020a0381166000908152600160205260409020546108f790610591565b600160a060020a0382166000908152600260205260409020555b600160a060020a03166000818152600460205260408120805460ff191660019081179091556005805491820181559091527f036b6384b5eca791c62761152d0c79bb0604c104a5fb6f4eb0703f3154bb3db001805473ffffffffffffffffffffffffffffffffffffffff19169091179055565b60115481565b600f5481565b600160a060020a03811660009081526004602052604081205460ff16156109d05750600160a060020a0381166000908152600260205260409020546105d2565b600160a060020a0382166000908152600160205260409020546109f290610591565b92915050565b610a00610d87565b600160a060020a0316610a11610a64565b600160a060020a031614610a3a5760405160e560020a62461bcd0281526004016103d690611e8d565b610a446000610f4e565b565b600160a060020a031660009081526004602052604090205460ff1690565b600054600160a060020a031690565b60606009805461042e906120f5565b610a8a610d87565b600160a060020a0316610a9b610a64565b600160a060020a031614610ac45760405160e560020a62461bcd0281526004016103d690611e8d565b600160a060020a038216610aed5760405160e560020a62461bcd0281526004016103d690611f1f565b6040517fa9059cbb0000000000000000000000000000000000000000000000000000000081528290600160a060020a0382169063a9059cbb90610b369033908690600401611b7a565b602060405180830381600087803b158015610b5057600080fd5b505af1158015610b64573d6000803e3d6000fd5b505050506040513d601f19601f82011682018060405250810190610b889190611b0e565b507f5c5578c78fc9b87943279247ef36abf638b9551372bb769b5d87d1ae6a31be64833384604051610bbc93929190611b56565b60405180910390a1505050565b600b5481565b60008060036000610bde610d87565b600160a060020a0390811682526020808301939093526040918201600090812091881681529252902054905082811015610c2d5760405160e560020a62461bcd0281526004016103d690612010565b610c41610c38610d87565b85858403610d8b565b5060019392505050565b60006104c5610c58610d87565b8484610e45565b610c67610d87565b600160a060020a0316610c78610a64565b600160a060020a031614610ca15760405160e560020a62461bcd0281526004016103d690611e8d565b6013805460ff19168215151790556040517fd93972947b6f619cc048053ab8874f9f4fc05ac3e2e41a2c689a1e520066750f90610414908390611b93565b600160a060020a03918216600090815260036020908152604080832093909416825291909152205490565b610d12610d87565b600160a060020a0316610d23610a64565b600160a060020a031614610d4c5760405160e560020a62461bcd0281526004016103d690611e8d565b600160a060020a038116610d755760405160e560020a62461bcd0281526004016103d690611cab565b610d7e81610f4e565b50565b600d5481565b3390565b600160a060020a038316610db45760405160e560020a62461bcd0281526004016103d690611fb3565b600160a060020a038216610ddd5760405160e560020a62461bcd0281526004016103d690611d08565b600160a060020a0380841660008181526003602090815260408083209487168084529490915290819020849055517f8c5be1e5ebec7d5bd14f71427d1e84f3dd0314c0f7b2291e5b200ac8c7c3b92590610e3890859061206d565b60405180910390a3505050565b600160a060020a038316610e6e5760405160e560020a62461bcd0281526004016103d690611f56565b600160a060020a038216610e975760405160e560020a62461bcd0281526004016103d690611bf1565b60008111610eba5760405160e560020a62461bcd0281526004016103d690611ec2565b610ec483836107e6565b6000610ecf84610990565b905081811015610ef45760405160e560020a62461bcd0281526004016103d690611d65565b60135460019060ff16610f05575060005b610f1185858584610fab565b5050505050565b6000806000610f256110cd565b9092509050610f348282610f3b565b9250505090565b6000610f47828461209c565b9392505050565b60008054600160a060020a0383811673ffffffffffffffffffffffffffffffffffffffff19831681178455604051919092169283917f8be0079c531659141344cd1fd0a4f28419497f9722a3daafe3b4186f6b6457e09190a35050565b80610fb857610fb86112c6565b600160a060020a03841660009081526004602052604090205460ff168015610ff95750600160a060020a03831660009081526004602052604090205460ff16155b1561100e576110098484846112df565b6110ba565b600160a060020a03841660009081526004602052604090205460ff1615801561104f5750600160a060020a03831660009081526004602052604090205460ff165b1561105f5761100984848461144f565b600160a060020a03841660009081526004602052604090205460ff16801561109f5750600160a060020a03831660009081526004602052604090205460ff165b156110af5761100984848461152c565b6110ba8484846115d2565b806110c7576110c7611649565b50505050565b60065460009081906d18a6e32246c99c60ad8500000000825b60055481101561127c578260016000600584815481106111195760e060020a634e487b7102600052603260045260246000fd5b6000918252602080832090910154600160a060020a031683528201929092526040019020541180611195575081600260006005848154811061116e5760e060020a634e487b7102600052603260045260246000fd5b6000918252602080832090910154600160a060020a03168352820192909252604001902054115b156111b8576006546d18a6e32246c99c60ad8500000000945094505050506112c2565b61120f60016000600584815481106111e35760e060020a634e487b7102600052603260045260246000fd5b6000918252602080832090910154600160a060020a031683528201929092526040019020548490611651565b9250611268600260006005848154811061123c5760e060020a634e487b7102600052603260045260246000fd5b6000918252602080832090910154600160a060020a031683528201929092526040019020548390611651565b91508061127481612133565b9150506110e6565b50600654611298906d18a6e32246c99c60ad8500000000610f3b565b8210156112bc576006546d18a6e32246c99c60ad85000000009350935050506112c2565b90925090505b9091565b600b546112d257610a44565b600b8054600c5560009055565b60008060008060006112f08661165d565b94509450945094509450600080600080600061130f8b8a8a8a8a6116c5565b9450945094509450945060008d90506113568c6002600084600160a060020a0316600160a060020a031681526020019081526020016000205461165190919063ffffffff16565b600160a060020a0382166000908152600260209081526040808320939093556001905220546113859087611651565b600160a060020a0391821660009081526001602052604080822092909255918e1682529020546113b59085611752565b600160a060020a038d166000908152600160205260409020556113d8838a61175e565b6113e188611782565b6113eb82886117c2565b6113f581876118e2565b8b600160a060020a03168d600160a060020a03167fddf252ad1be2c89b69c2b068fc378daa952ba7f163c4a11628f55a4df523b3ef8c604051611438919061206d565b60405180910390a350505050505050505050505050565b60008060008060006114608661165d565b94509450945094509450600080600080600061147f8b8a8a8a8a6116c5565b9450945094509450945060008d90506114c6866001600084600160a060020a0316600160a060020a031681526020019081526020016000205461165190919063ffffffff16565b600160a060020a03918216600090815260016020908152604080832093909355928f16815260029092529020546114fd908b611752565b600160a060020a038d166000908152600260209081526040808320939093556001905220546113b59085611752565b600080600080600061153d8661165d565b94509450945094509450600080600080600061155c8b8a8a8a8a6116c5565b9450945094509450945060008d90506115a38c6002600084600160a060020a0316600160a060020a031681526020019081526020016000205461165190919063ffffffff16565b600160a060020a0382166000908152600260209081526040808320939093556001905220546114c69087611651565b60008060008060006115e38661165d565b9450945094509450945060008060008060006116028b8a8a8a8a6116c5565b9450945094509450945060008d9050611385866001600084600160a060020a0316600160a060020a031681526020019081526020016000205461165190919063ffffffff16565b600c54600b55565b6000610f4782846120de565b600080808080858161166e826119a8565b9050600061167b836119ca565b90506000611688846119e6565b9050600061169585611a02565b905060006116b1826116ab858188818c8c611651565b90611651565b9c949b509299509097509550909350505050565b6000806000806000806116d6610f18565b90508a60006116e58284611a1f565b905060006116f38d85611a1f565b905060006117018d86611a1f565b9050600061170f8d87611a1f565b9050600061171d8d88611a1f565b90506000611733826116ab858188818c8c611651565b959c50949a509298509650909450505050509550955095509550959050565b6000610f478284612084565b60065461176b9083611651565b60065560075461177b9082611752565b6007555050565b60145461178f9082611752565b6014556040517f557809284da7314475b1582804ae28e5f1349efc1fe970ea25d50fce75eb4f439061041490839061206d565b601554600160a060020a031660009081526004602052604090205460ff161561182a57601554600160a060020a031660009081526001602052604090205461180a9083611752565b601554600160a060020a03166000908152600160205260409020556118a7565b601554600160a060020a031660009081526001602052604090205461184f9083611752565b60158054600160a060020a03908116600090815260016020908152604080832095909555925490911681526002909152205461188b9082611752565b601554600160a060020a03166000908152600260205260409020555b7f557809284da7314475b1582804ae28e5f1349efc1fe970ea25d50fce75eb4f43816040516118d6919061206d565b60405180910390a15050565b3060009081526004602052604090205460ff161561192957306000908152600160205260409020546119149083611752565b306000908152600160205260409020556118a7565b306000908152600160205260409020546119439083611752565b306000908152600160209081526040808320939093556002905220546119699082611752565b306000908152600260205260409020557f557809284da7314475b1582804ae28e5f1349efc1fe970ea25d50fce75eb4f43816040516118d6919061206d565b60006109f260646119c4600b5485611a1f90919063ffffffff16565b90610f3b565b60006109f260646119c4600d5485611a1f90919063ffffffff16565b60006109f260646119c4600f5485611a1f90919063ffffffff16565b60006109f26103e86119c460115485611a1f90919063ffffffff16565b6000610f4782846120bf565b8035600160a060020a03811681146105d257600080fd5b600060208284031215611a53578081fd5b610f4782611a2b565b60008060408385031215611a6e578081fd5b611a7783611a2b565b9150611a8560208401611a2b565b90509250929050565b600080600060608486031215611aa2578081fd5b611aab84611a2b565b9250611ab960208501611a2b565b9150604084013590509250925092565b60008060408385031215611adb578182fd5b611ae483611a2b565b946020939093013593505050565b600060208284031215611b03578081fd5b8135610f4781612167565b600060208284031215611b1f578081fd5b8151610f4781612167565b600060208284031215611b3b578081fd5b5035919050565b600160a060020a0391909116815260200190565b600160a060020a039384168152919092166020820152604081019190915260600190565b600160a060020a03929092168252602082015260400190565b901515815260200190565b6000602080835283518082850152825b81811015611bca57858101830151858201604001528201611bae565b81811115611bdb5783604083870101525b50601f01601f1916929092016040019392505050565b60208082526023908201527f45524332303a207472616e7366657220746f20746865207a65726f206164647260408201527f6573730000000000000000000000000000000000000000000000000000000000606082015260800190565b6020808252602a908201527f416d6f756e74206d757374206265206c657373207468616e20746f74616c207260408201527f65666c656374696f6e7300000000000000000000000000000000000000000000606082015260800190565b60208082526026908201527f4f776e61626c653a206e6577206f776e657220697320746865207a65726f206160408201527f6464726573730000000000000000000000000000000000000000000000000000606082015260800190565b60208082526022908201527f45524332303a20617070726f766520746f20746865207a65726f20616464726560408201527f7373000000000000000000000000000000000000000000000000000000000000606082015260800190565b60208082526026908201527f45524332303a207472616e7366657220616d6f756e742065786365656473206260408201527f616c616e63650000000000000000000000000000000000000000000000000000606082015260800190565b60208082526017908201527f4163636f756e74206973206e6f74206578636c75646564000000000000000000604082015260600190565b6020808252601b908201527f4163636f756e7420697320616c726561647920696e636c756465640000000000604082015260600190565b60208082526028908201527f45524332303a207472616e7366657220616d6f756e742065786365656473206160408201527f6c6c6f77616e6365000000000000000000000000000000000000000000000000606082015260800190565b6020808252818101527f4f776e61626c653a2063616c6c6572206973206e6f7420746865206f776e6572604082015260600190565b60208082526029908201527f5472616e7366657220616d6f756e74206d75737420626520677265617465722060408201527f7468616e207a65726f0000000000000000000000000000000000000000000000606082015260800190565b6020808252601c908201527f416464726573732063616e74206265207a65726f206164647265737300000000604082015260600190565b60208082526025908201527f45524332303a207472616e736665722066726f6d20746865207a65726f20616460408201527f6472657373000000000000000000000000000000000000000000000000000000606082015260800190565b60208082526024908201527f45524332303a20617070726f76652066726f6d20746865207a65726f2061646460408201527f7265737300000000000000000000000000000000000000000000000000000000606082015260800190565b60208082526025908201527f45524332303a2064656372656173656420616c6c6f77616e63652062656c6f7760408201527f207a65726f000000000000000000000000000000000000000000000000000000606082015260800190565b90815260200190565b60ff91909116815260200190565b600082198211156120975761209761214e565b500190565b6000826120ba5760e060020a634e487b710281526012600452602481fd5b500490565b60008160001904831182151516156120d9576120d961214e565b500290565b6000828210156120f0576120f061214e565b500390565b60028104600182168061210957607f821691505b6020821081141561212d5760e060020a634e487b7102600052602260045260246000fd5b50919050565b60006000198214156121475761214761214e565b5060010190565b60e060020a634e487b7102600052601160045260246000fd5b8015158114610d7e57600080fdfea26469706673582212204d93daa9ca16b6644d5dc54f725f44675f6f3e21ae62f58bbb924250f1f72c6564736f6c63430008000033",
  "immutableReferences": {},
  "source": "/*\ncreated by: karthi\ncreated at:08/11/21 \n*/\n\n// SPDX-License-Identifier: MIT\npragma solidity ^0.8.0;\n\n// import \"@openzeppelin/contracts/token/ERC20/ERC20.sol\";\n\nimport \"@openzeppelin/contracts/token/ERC20/extensions/IERC20Metadata.sol\";\nimport \"@openzeppelin/contracts/token/ERC20/IERC20.sol\";\nimport \"@openzeppelin/contracts/utils/Context.sol\";\nimport \"@openzeppelin/contracts/access/Ownable.sol\";\nimport \"@openzeppelin/contracts/utils/Address.sol\";\nimport \"@openzeppelin/contracts/utils/math/SafeMath.sol\";\n\n// contract PUGLIFE is ERC20 {\n//     constructor() ERC20(\"PUGLIFE\", \"PUGL\") {\n//         _mint(msg.sender, 500000000000000 * (10**uint256(decimals())));\n//     }\n// }\n\ncontract PUGLIFE is Context, IERC20, IERC20Metadata, Ownable {\n    using SafeMath for uint256;\n    using Address for address;\n\n    mapping(address => uint256) private _rOwned;\n    mapping(address => uint256) private _tOwned;\n    mapping(address => mapping(address => uint256)) private _allowances;\n\n    mapping(address => bool) private _isExcluded;\n    address[] private _excluded;\n\n    uint256 private constant MAX = ~uint256(0);\n    uint256 private constant _tTotal = 500000000000000 * 10**18;\n    uint256 private _rTotal = (MAX - (MAX % _tTotal));\n    uint256 private _tFeeTotal;\n\n    string private _name = \"PUGLIFE\";\n    string private _symbol = \"PUGL\";\n    uint8 private _decimals = 18;\n\n    uint256 public taxFee = 2;\n    uint256 private previousTaxFee = taxFee;\n\n    uint256 public burnFee = 1;\n    uint256 private previousBurnFee = burnFee;\n\n    uint256 public devFee = 1;\n    uint256 private previousDevFee = devFee;\n\n    uint256 public liqudityFee = 5;\n    uint256 private previousLiqudityFee = liqudityFee;\n\n    bool public enableFee;\n\n    uint256 private _amount_burnt;\n\n    address devAddress = 0x1C34F8328bDC8797b166f87cE7A204cF743903Ba;\n\n    event FeeEnable(bool enableFee);\n    event SetMaxTxPercent(uint256 maxPercent);\n    event SetTaxFeePercent(uint256 taxFeePercent);\n    event ExternalTokenTransfered(\n        address externalAddress,\n        address toAddress,\n        uint256 amount\n    );\n\n    event Fee(uint256 amount);\n\n    constructor() {\n        _rOwned[_msgSender()] = _rTotal;\n        emit Transfer(address(0), _msgSender(), _tTotal);\n    }\n\n    function name() external view virtual override returns (string memory) {\n        return _name;\n    }\n\n    function symbol() external view virtual override returns (string memory) {\n        return _symbol;\n    }\n\n    function decimals() external view virtual override returns (uint8) {\n        return _decimals;\n    }\n\n    function totalSupply() external view virtual override returns (uint256) {\n        return _tTotal - _amount_burnt;\n    }\n\n    function balanceOf(address account)\n        public\n        view\n        virtual\n        override\n        returns (uint256)\n    {\n        if (_isExcluded[account]) return _tOwned[account];\n        return tokenFromReflection(_rOwned[account]);\n    }\n\n    function transfer(address recipient, uint256 amount)\n        external\n        virtual\n        override\n        returns (bool)\n    {\n        _transfer(_msgSender(), recipient, amount);\n        return true;\n    }\n\n    function allowance(address owner, address spender)\n        external\n        view\n        virtual\n        override\n        returns (uint256)\n    {\n        return _allowances[owner][spender];\n    }\n\n    function approve(address spender, uint256 amount)\n        external\n        virtual\n        override\n        returns (bool)\n    {\n        _approve(_msgSender(), spender, amount);\n        return true;\n    }\n\n    function transferFrom(\n        address sender,\n        address recipient,\n        uint256 amount\n    ) external virtual override returns (bool) {\n        _transfer(sender, recipient, amount);\n\n        uint256 currentAllowance = _allowances[sender][_msgSender()];\n        require(\n            currentAllowance >= amount,\n            \"ERC20: transfer amount exceeds allowance\"\n        );\n        _approve(sender, _msgSender(), currentAllowance - amount);\n\n        return true;\n    }\n\n    function increaseAllowance(address spender, uint256 addedValue)\n        external\n        virtual\n        returns (bool)\n    {\n        _approve(\n            _msgSender(),\n            spender,\n            _allowances[_msgSender()][spender] + addedValue\n        );\n        return true;\n    }\n\n    function decreaseAllowance(address spender, uint256 subtractedValue)\n        external\n        virtual\n        returns (bool)\n    {\n        uint256 currentAllowance = _allowances[_msgSender()][spender];\n        require(\n            currentAllowance >= subtractedValue,\n            \"ERC20: decreased allowance below zero\"\n        );\n        unchecked {\n            _approve(_msgSender(), spender, currentAllowance - subtractedValue);\n        }\n\n        return true;\n    }\n\n    function totalFees() external view returns (uint256) {\n        return _tFeeTotal;\n    }\n\n    function tokenFromReflection(uint256 rAmount)\n        public\n        view\n        returns (uint256)\n    {\n        require(\n            rAmount <= _rTotal,\n            \"Amount must be less than total reflections\"\n        );\n        uint256 currentRate = getRate();\n        return rAmount.div(currentRate);\n    }\n\n    function excludeFromReward(address account) public onlyOwner {\n        require(!_isExcluded[account], \"Account is already included\");\n        if (_rOwned[account] > 0) {\n            _tOwned[account] = tokenFromReflection(_rOwned[account]);\n        }\n        _isExcluded[account] = true;\n        _excluded.push(account);\n    }\n\n    function includeInReward(address account) public onlyOwner {\n        require(_isExcluded[account], \"Account is not excluded\");\n        for (uint256 i = 0; i < _excluded.length; i++) {\n            if (_excluded[i] == account) {\n                _excluded[i] = _excluded[_excluded.length - 1];\n                _tOwned[account] = 0;\n                _isExcluded[account] = false;\n                _excluded.pop();\n                break;\n            }\n        }\n    }\n\n    function isExcludedFromReward(address account)\n        external\n        view\n        returns (bool)\n    {\n        return _isExcluded[account];\n    }\n\n    function setTaxFeePercent(uint256 fee) external onlyOwner {\n        taxFee = fee;\n        emit SetTaxFeePercent(taxFee);\n    }\n\n    function setEnableFee(bool enableTax) external onlyOwner {\n        enableFee = enableTax;\n        emit FeeEnable(enableTax);\n    }\n\n    function takeReflectionFee(uint256 rFee, uint256 tFee) internal {\n        _rTotal = _rTotal.sub(rFee);\n        _tFeeTotal = _tFeeTotal.add(tFee);\n    }\n\n    function takeBurnFee(uint256 tburnFee) internal {\n        _amount_burnt = _amount_burnt.add(tburnFee);\n        emit Fee(tburnFee);\n    }\n\n    function takeDevFee(uint256 rdevFee, uint256 tdevFee) internal {\n        if (_isExcluded[devAddress]) {\n            _rOwned[devAddress] = _rOwned[devAddress].add(rdevFee);\n        } else {\n            _rOwned[devAddress] = _rOwned[devAddress].add(rdevFee);\n            _tOwned[devAddress] = _tOwned[devAddress].add(tdevFee);\n        }\n        emit Fee(tdevFee);\n    }\n\n    function takeLiquidityFee(uint256 rliquidityFee, uint256 tliquidityFee)\n        internal\n    {\n        if (_isExcluded[address(this)]) {\n            _rOwned[address(this)] = _rOwned[address(this)].add(rliquidityFee);\n        } else {\n            _rOwned[address(this)] = _rOwned[address(this)].add(rliquidityFee);\n            _tOwned[address(this)] = _tOwned[address(this)].add(tliquidityFee);\n        }\n        emit Fee(tliquidityFee);\n    }\n\n    function getTValues(uint256 amount)\n        internal\n        view\n        returns (\n            uint256,\n            uint256,\n            uint256,\n            uint256,\n            uint256\n        )\n    {\n        uint256 tAmount = amount;\n        uint256 tFee = calculateTaxFee(tAmount);\n        uint256 tburnFee = calculateBurnFee(tAmount);\n        uint256 tdevFee = calculateDevFee(tAmount);\n        uint256 tliquidity = calculateLiquidityFee(tAmount);\n        uint256 tTransferAmount = tAmount\n            .sub(tFee)\n            .sub(tburnFee)\n            .sub(tdevFee)\n            .sub(tliquidity);\n        return (tTransferAmount, tFee, tburnFee, tdevFee, tliquidity);\n    }\n\n    function getRValues(\n        uint256 amount,\n        uint256 tFee,\n        uint256 tburnFee,\n        uint256 tdevFee,\n        uint256 tliquidityFee\n    )\n        internal\n        view\n        returns (\n            uint256,\n            uint256,\n            uint256,\n            uint256,\n            uint256\n        )\n    {\n        uint256 currentRate = getRate();\n        uint256 tAmount = amount;\n        uint256 rAmount = tAmount.mul(currentRate);\n        uint256 rFee = tFee.mul(currentRate);\n        uint256 rburnFee = tburnFee.mul(currentRate);\n        uint256 rdevFee = tdevFee.mul(currentRate);\n        uint256 rliquidityFee = tliquidityFee.mul(currentRate);\n        uint256 rTransferAmount = rAmount\n            .sub(rFee)\n            .sub(rburnFee)\n            .sub(rdevFee)\n            .sub(rliquidityFee);\n        return (rAmount, rTransferAmount, rFee, rdevFee, rliquidityFee);\n    }\n\n    function getRate() internal view returns (uint256) {\n        (uint256 rSupply, uint256 tSupply) = getCurrentSupply();\n        return rSupply.div(tSupply);\n    }\n\n    function getCurrentSupply() internal view returns (uint256, uint256) {\n        uint256 rSupply = _rTotal;\n        uint256 tSupply = _tTotal;\n        for (uint256 i = 0; i < _excluded.length; i++) {\n            if (\n                _rOwned[_excluded[i]] > rSupply ||\n                _tOwned[_excluded[i]] > tSupply\n            ) return (_rTotal, _tTotal);\n            rSupply = rSupply.sub(_rOwned[_excluded[i]]);\n            tSupply = tSupply.sub(_tOwned[_excluded[i]]);\n        }\n        if (rSupply < _rTotal.div(_tTotal)) return (_rTotal, _tTotal);\n        return (rSupply, tSupply);\n    }\n\n    function calculateTaxFee(uint256 _amount) internal view returns (uint256) {\n        return _amount.mul(taxFee).div(10**2);\n    }\n\n    function calculateBurnFee(uint256 _amount) internal view returns (uint256) {\n        return _amount.mul(burnFee).div(10**2);\n    }\n\n    function calculateDevFee(uint256 _amount) internal view returns (uint256) {\n        return _amount.mul(devFee).div(10**2);\n    }\n\n    function calculateLiquidityFee(uint256 _amount)\n        internal\n        view\n        returns (uint256)\n    {\n        return _amount.mul(liqudityFee).div(10**3);\n    }\n\n    function removeAllFee() internal {\n        if (taxFee == 0) return;\n        previousTaxFee = taxFee;\n        taxFee = 0;\n    }\n\n    function restoreAllFee() internal {\n        taxFee = previousTaxFee;\n    }\n\n    function _approve(\n        address owner,\n        address spender,\n        uint256 amount\n    ) internal virtual {\n        require(owner != address(0), \"ERC20: approve from the zero address\");\n        require(spender != address(0), \"ERC20: approve to the zero address\");\n        _allowances[owner][spender] = amount;\n        emit Approval(owner, spender, amount);\n    }\n\n    function _transfer(\n        address from,\n        address to,\n        uint256 amount\n    ) internal {\n        require(from != address(0), \"ERC20: transfer from the zero address\");\n        require(to != address(0), \"ERC20: transfer to the zero address\");\n        require(amount > 0, \"Transfer amount must be greater than zero\");\n        _beforeTokenTransfer(from, to);\n        uint256 senderBalance = balanceOf(from);\n        require(\n            senderBalance >= amount,\n            \"ERC20: transfer amount exceeds balance\"\n        );\n        bool takeFee = true;\n        if (!enableFee) {\n            takeFee = false;\n        }\n        _tokenTransfer(from, to, amount, takeFee);\n    }\n\n    function _tokenTransfer(\n        address sender,\n        address recipient,\n        uint256 amount,\n        bool takeFee\n    ) internal {\n        if (!takeFee) removeAllFee();\n        if (_isExcluded[sender] && !_isExcluded[recipient]) {\n            _transferFromExcluded(sender, recipient, amount);\n        } else if (!_isExcluded[sender] && _isExcluded[recipient]) {\n            _transferToExcluded(sender, recipient, amount);\n        } else if (_isExcluded[sender] && _isExcluded[recipient]) {\n            _transferBothExcluded(sender, recipient, amount);\n        } else {\n            _transferStandard(sender, recipient, amount);\n        }\n        if (!takeFee) restoreAllFee();\n    }\n\n    function _transferStandard(\n        address sender,\n        address recipient,\n        uint256 tAmount\n    ) internal {\n        (\n            uint256 tTransferAmount,\n            uint256 tFee,\n            uint256 tburnFee,\n            uint256 tdevFee,\n            uint256 tliquidityFee\n        ) = getTValues(tAmount);\n        (\n            uint256 rAmount,\n            uint256 rTransferAmount,\n            uint256 rFee,\n            uint256 rdevFee,\n            uint256 rliquidityFee\n        ) = getRValues(tAmount, tFee, tburnFee, tdevFee, tliquidityFee);\n        {\n            address from = sender;\n        _rOwned[from] = _rOwned[from].sub(rAmount);}\n        _rOwned[recipient] = _rOwned[recipient].add(rTransferAmount);\n        takeReflectionFee(rFee, tFee);\n        takeBurnFee(tburnFee);\n        takeDevFee(rdevFee, tdevFee);\n        takeLiquidityFee(rliquidityFee, tliquidityFee);\n        emit Transfer(sender, recipient, tTransferAmount);\n    }\n\n    function _transferBothExcluded(\n        address sender,\n        address recipient,\n        uint256 tAmount\n    ) internal {\n        (\n            uint256 tTransferAmount,\n            uint256 tFee,\n            uint256 tburnFee,\n            uint256 tdevFee,\n            uint256 tliquidityFee\n        ) = getTValues(tAmount);\n        (\n            uint256 rAmount,\n            uint256 rTransferAmount,\n            uint256 rFee,\n            uint256 rdevFee,\n            uint256 rliquidityFee\n        ) = getRValues(tAmount, tFee, tburnFee, tdevFee, tliquidityFee);\n        {\n            address from = sender;\n            _tOwned[from] = _tOwned[from].sub(tAmount);\n            _rOwned[from] = _rOwned[from].sub(rAmount);\n        }\n        _tOwned[recipient] = _tOwned[recipient].add(tTransferAmount);\n        _rOwned[recipient] = _rOwned[recipient].add(rTransferAmount);\n        takeReflectionFee(rFee, tFee);\n        takeBurnFee(tburnFee);\n        takeDevFee(rdevFee, tdevFee);\n        takeLiquidityFee(rliquidityFee, tliquidityFee);\n        emit Transfer(sender, recipient, tTransferAmount);\n    }\n\n    function _transferToExcluded(\n        address sender,\n        address recipient,\n        uint256 tAmount\n    ) internal {\n        (\n            uint256 tTransferAmount,\n            uint256 tFee,\n            uint256 tburnFee,\n            uint256 tdevFee,\n            uint256 tliquidityFee\n        ) = getTValues(tAmount);\n        (\n            uint256 rAmount,\n            uint256 rTransferAmount,\n            uint256 rFee,\n            uint256 rdevFee,\n            uint256 rliquidityFee\n        ) = getRValues(tAmount, tFee, tburnFee, tdevFee, tliquidityFee);\n        {\n            address from = sender;\n            _rOwned[from] = _rOwned[from].sub(rAmount);\n        }\n        _tOwned[recipient] = _tOwned[recipient].add(tTransferAmount);\n        _rOwned[recipient] = _rOwned[recipient].add(rTransferAmount);\n        takeReflectionFee(rFee, tFee);\n        takeBurnFee(tburnFee);\n        takeDevFee(rdevFee, tdevFee);\n        takeLiquidityFee(rliquidityFee, tliquidityFee);\n        emit Transfer(sender, recipient, tTransferAmount);\n    }\n\n    function _transferFromExcluded(\n        address sender,\n        address recipient,\n        uint256 tAmount\n    ) internal {\n        (\n            uint256 tTransferAmount,\n            uint256 tFee,\n            uint256 tburnFee,\n            uint256 tdevFee,\n            uint256 tliquidityFee\n        ) = getTValues(tAmount);\n        (\n            uint256 rAmount,\n            uint256 rTransferAmount,\n            uint256 rFee,\n            uint256 rdevFee,\n            uint256 rliquidityFee\n        ) = getRValues(tAmount, tFee, tburnFee, tdevFee, tliquidityFee);\n        {\n            address from = sender;\n            _tOwned[from] = _tOwned[from].sub(tAmount);\n            _rOwned[from] = _rOwned[from].sub(rAmount);\n        }\n        _rOwned[recipient] = _rOwned[recipient].add(rTransferAmount);\n        takeReflectionFee(rFee, tFee);\n        takeBurnFee(tburnFee);\n        takeDevFee(rdevFee, tdevFee);\n        takeLiquidityFee(rliquidityFee, tliquidityFee);\n        emit Transfer(sender, recipient, tTransferAmount);\n    }\n\n    function withdrawToken(address _tokenContract, uint256 _amount)\n        external\n        onlyOwner\n    {\n        require(_tokenContract != address(0), \"Address cant be zero address\");\n        IERC20 tokenContract = IERC20(_tokenContract);\n        tokenContract.transfer(msg.sender, _amount);\n        emit ExternalTokenTransfered(_tokenContract, msg.sender, _amount);\n    }\n\n    function _beforeTokenTransfer(address from, address to) internal virtual {}\n}\n",
  "sourcePath": "/home/karthi/Task Month Wise/sample/sample code/contracts/PUGLIFE.sol",
  "compiler": {
    "name": "solc",
    "version": "0.8.0+commit.c7dfd78e.Emscripten.clang"
  },
  "schemaVersion": "3.4.3",
  "updatedAt": "2021-11-10T14:02:13.166Z",
  "networkType": "ethereum",
  "devdoc": {
    "kind": "dev",
    "methods": {
      "allowance(address,address)": {
        "details": "Returns the remaining number of tokens that `spender` will be allowed to spend on behalf of `owner` through {transferFrom}. This is zero by default. This value changes when {approve} or {transferFrom} are called."
      },
      "approve(address,uint256)": {
        "details": "Sets `amount` as the allowance of `spender` over the caller's tokens. Returns a boolean value indicating whether the operation succeeded. IMPORTANT: Beware that changing an allowance with this method brings the risk that someone may use both the old and the new allowance by unfortunate transaction ordering. One possible solution to mitigate this race condition is to first reduce the spender's allowance to 0 and set the desired value afterwards: https://github.com/ethereum/EIPs/issues/20#issuecomment-263524729 Emits an {Approval} event."
      },
      "balanceOf(address)": {
        "details": "Returns the amount of tokens owned by `account`."
      },
      "decimals()": {
        "details": "Returns the decimals places of the token."
      },
      "name()": {
        "details": "Returns the name of the token."
      },
      "owner()": {
        "details": "Returns the address of the current owner."
      },
      "renounceOwnership()": {
        "details": "Leaves the contract without owner. It will not be possible to call `onlyOwner` functions anymore. Can only be called by the current owner. NOTE: Renouncing ownership will leave the contract without an owner, thereby removing any functionality that is only available to the owner."
      },
      "symbol()": {
        "details": "Returns the symbol of the token."
      },
      "totalSupply()": {
        "details": "Returns the amount of tokens in existence."
      },
      "transfer(address,uint256)": {
        "details": "Moves `amount` tokens from the caller's account to `recipient`. Returns a boolean value indicating whether the operation succeeded. Emits a {Transfer} event."
      },
      "transferFrom(address,address,uint256)": {
        "details": "Moves `amount` tokens from `sender` to `recipient` using the allowance mechanism. `amount` is then deducted from the caller's allowance. Returns a boolean value indicating whether the operation succeeded. Emits a {Transfer} event."
      },
      "transferOwnership(address)": {
        "details": "Transfers ownership of the contract to a new account (`newOwner`). Can only be called by the current owner."
      }
    },
    "version": 1
  },
  "userdoc": {
    "kind": "user",
    "methods": {},
    "version": 1
  }
}